{
    "_format": "hh-sol-artifact-1",
    "contractName": "Authenticate",
    "sourceName": "contracts/Authenticate.sol",
    "abi": [
        {
            "inputs": [
                {
                    "internalType": "address",
                    "name": "seller",
                    "type": "address"
                }
            ],
            "name": "addSeller",
            "outputs": [],
            "stateMutability": "nonpayable",
            "type": "function"
        },
        {
            "inputs": [
                {
                    "internalType": "address",
                    "name": "",
                    "type": "address"
                },
                {
                    "internalType": "uint256",
                    "name": "",
                    "type": "uint256"
                }
            ],
            "name": "sellerList",
            "outputs": [
                {
                    "internalType": "address",
                    "name": "",
                    "type": "address"
                }
            ],
            "stateMutability": "view",
            "type": "function"
        }
    ],
    "bytecode": "0x608060405234801561001057600080fd5b506102d0806100206000396000f3fe608060405234801561001057600080fd5b50600436106100365760003560e01c80636e881c9a1461003b578063d93fabfa1461006b575b600080fd5b610055600480360381019061005091906101ca565b610087565b6040516100629190610215565b60405180910390f35b610085600480360381019061008091906101a1565b6100d5565b005b600060205281600052604060002081815481106100a357600080fd5b906000526020600020016000915091509054906101000a900473ffffffffffffffffffffffffffffffffffffffff1681565b6000803373ffffffffffffffffffffffffffffffffffffffff1673ffffffffffffffffffffffffffffffffffffffff168152602001908152602001600020819080600181540180825580915050600190039060005260206000200160009091909190916101000a81548173ffffffffffffffffffffffffffffffffffffffff021916908373ffffffffffffffffffffffffffffffffffffffff16021790555050565b6000813590506101868161026c565b92915050565b60008135905061019b81610283565b92915050565b6000602082840312156101b357600080fd5b60006101c184828501610177565b91505092915050565b600080604083850312156101dd57600080fd5b60006101eb85828601610177565b92505060206101fc8582860161018c565b9150509250929050565b61020f81610230565b82525050565b600060208201905061022a6000830184610206565b92915050565b600061023b82610242565b9050919050565b600073ffffffffffffffffffffffffffffffffffffffff82169050919050565b6000819050919050565b61027581610230565b811461028057600080fd5b50565b61028c81610262565b811461029757600080fd5b5056fea26469706673582212209b4defce1007d9be067d57b244effe69034596dae380579333caeab5d0968d6564736f6c63430008000033",
    "linkReferences": {},
    "deployedLinkReferences": {}
}