{
  "_format": "hh-sol-artifact-1",
  "contractName": "TransactProducts",
  "sourceName": "contracts/TransactProducts.sol",
  "abi": [
    {
      "inputs": [
        {
          "internalType": "contract Balances",
          "name": "_balance",
          "type": "address"
        },
        {
          "internalType": "contract Products",
          "name": "_products",
          "type": "address"
        }
      ],
      "stateMutability": "nonpayable",
      "type": "constructor"
    },
    {
      "inputs": [],
      "name": "balances",
      "outputs": [
        {
          "internalType": "contract Balances",
          "name": "",
          "type": "address"
        }
      ],
      "stateMutability": "view",
      "type": "function"
    },
    {
      "inputs": [],
      "name": "owner",
      "outputs": [
        {
          "internalType": "address",
          "name": "",
          "type": "address"
        }
      ],
      "stateMutability": "view",
      "type": "function"
    },
    {
      "inputs": [],
      "name": "products",
      "outputs": [
        {
          "internalType": "contract Products",
          "name": "",
          "type": "address"
        }
      ],
      "stateMutability": "view",
      "type": "function"
    },
    {
      "inputs": [
        {
          "internalType": "address",
          "name": "seller",
          "type": "address"
        },
        {
          "internalType": "uint256",
          "name": "_amount",
          "type": "uint256"
        }
      ],
      "name": "transferProducts",
      "outputs": [],
      "stateMutability": "payable",
      "type": "function"
    }
  ],
  "bytecode": "0x608060405234801561001057600080fd5b50604051610902380380610902833981810160405281019061003291906100e5565b81600160006101000a81548173ffffffffffffffffffffffffffffffffffffffff021916908373ffffffffffffffffffffffffffffffffffffffff16021790555080600260006101000a81548173ffffffffffffffffffffffffffffffffffffffff021916908373ffffffffffffffffffffffffffffffffffffffff16021790555050506101a5565b6000815190506100ca81610177565b92915050565b6000815190506100df8161018e565b92915050565b600080604083850312156100f857600080fd5b6000610106858286016100bb565b9250506020610117858286016100d0565b9150509250929050565b600061012c82610157565b9050919050565b600061013e82610121565b9050919050565b600061015082610121565b9050919050565b600073ffffffffffffffffffffffffffffffffffffffff82169050919050565b61018081610133565b811461018b57600080fd5b50565b61019781610145565b81146101a257600080fd5b50565b61074e806101b46000396000f3fe60806040526004361061003f5760003560e01c80633c485fc8146100445780637bb98a68146100605780638da5cb5b1461008b578063c71e261f146100b6575b600080fd5b61005e600480360381019061005991906103f7565b6100e1565b005b34801561006c57600080fd5b50610075610348565b6040516100829190610553565b60405180910390f35b34801561009757600080fd5b506100a061036e565b6040516100ad91906104d8565b60405180910390f35b3480156100c257600080fd5b506100cb610392565b6040516100d8919061056e565b60405180910390f35b60008111610124576040517f08c379a000000000000000000000000000000000000000000000000000000000815260040161011b90610589565b60405180910390fd5b600260009054906101000a900473ffffffffffffffffffffffffffffffffffffffff1673ffffffffffffffffffffffffffffffffffffffff166323b872dd333060008561017191906105ba565b6040518463ffffffff1660e01b815260040161018f939291906104f3565b602060405180830381600087803b1580156101a957600080fd5b505af11580156101bd573d6000803e3d6000fd5b505050506040513d601f19601f820116820180604052508101906101e19190610433565b50600260009054906101000a900473ffffffffffffffffffffffffffffffffffffffff1673ffffffffffffffffffffffffffffffffffffffff1663095ea7b383836040518363ffffffff1660e01b815260040161023f92919061052a565b602060405180830381600087803b15801561025957600080fd5b505af115801561026d573d6000803e3d6000fd5b505050506040513d601f19601f820116820180604052508101906102919190610433565b50600260009054906101000a900473ffffffffffffffffffffffffffffffffffffffff1673ffffffffffffffffffffffffffffffffffffffff166323b872dd3384846040518463ffffffff1660e01b81526004016102f1939291906104f3565b602060405180830381600087803b15801561030b57600080fd5b505af115801561031f573d6000803e3d6000fd5b505050506040513d601f19601f820116820180604052508101906103439190610433565b505050565b600160009054906101000a900473ffffffffffffffffffffffffffffffffffffffff1681565b60008054906101000a900473ffffffffffffffffffffffffffffffffffffffff1681565b600260009054906101000a900473ffffffffffffffffffffffffffffffffffffffff1681565b6000813590506103c7816106d3565b92915050565b6000815190506103dc816106ea565b92915050565b6000813590506103f181610701565b92915050565b6000806040838503121561040a57600080fd5b6000610418858286016103b8565b9250506020610429858286016103e2565b9150509250929050565b60006020828403121561044557600080fd5b6000610453848285016103cd565b91505092915050565b61046581610614565b82525050565b6104748161065c565b82525050565b61048381610680565b82525050565b60006104966012836105a9565b91507f616d6f756e742063616e6e6f74206265203000000000000000000000000000006000830152602082019050919050565b6104d281610652565b82525050565b60006020820190506104ed600083018461045c565b92915050565b6000606082019050610508600083018661045c565b610515602083018561045c565b61052260408301846104c9565b949350505050565b600060408201905061053f600083018561045c565b61054c60208301846104c9565b9392505050565b6000602082019050610568600083018461046b565b92915050565b6000602082019050610583600083018461047a565b92915050565b600060208201905081810360008301526105a281610489565b9050919050565b600082825260208201905092915050565b60006105c582610652565b91506105d083610652565b9250817fffffffffffffffffffffffffffffffffffffffffffffffffffffffffffffffff0483118215151615610609576106086106a4565b5b828202905092915050565b600061061f82610632565b9050919050565b60008115159050919050565b600073ffffffffffffffffffffffffffffffffffffffff82169050919050565b6000819050919050565b60006106678261066e565b9050919050565b600061067982610632565b9050919050565b600061068b82610692565b9050919050565b600061069d82610632565b9050919050565b7f4e487b7100000000000000000000000000000000000000000000000000000000600052601160045260246000fd5b6106dc81610614565b81146106e757600080fd5b50565b6106f381610626565b81146106fe57600080fd5b50565b61070a81610652565b811461071557600080fd5b5056fea26469706673582212208b131970f91e900f07f8712ca13897d89e90e96fdfca9d56ca688ade1a4b4f7564736f6c63430008000033",
  "linkReferences": {},
  "deployedLinkReferences": {}
}