{
  "_format": "hh-sol-artifact-1",
  "contractName": "Transaction",
  "sourceName": "contracts/Transaction.sol",
  "abi": [
    {
      "inputs": [
        {
          "internalType": "contract Balances",
          "name": "_balance",
          "type": "address"
        },
        {
          "internalType": "contract Products",
          "name": "_products",
          "type": "address"
        }
      ],
      "stateMutability": "nonpayable",
      "type": "constructor"
    },
    {
      "inputs": [],
      "name": "balances",
      "outputs": [
        {
          "internalType": "contract Balances",
          "name": "",
          "type": "address"
        }
      ],
      "stateMutability": "view",
      "type": "function"
    },
    {
      "inputs": [
        {
          "internalType": "address",
          "name": "",
          "type": "address"
        }
      ],
      "name": "buyingBalance",
      "outputs": [
        {
          "internalType": "uint256",
          "name": "",
          "type": "uint256"
        }
      ],
      "stateMutability": "view",
      "type": "function"
    },
    {
      "inputs": [
        {
          "internalType": "address",
          "name": "",
          "type": "address"
        }
      ],
      "name": "hasPaid",
      "outputs": [
        {
          "internalType": "bool",
          "name": "",
          "type": "bool"
        }
      ],
      "stateMutability": "view",
      "type": "function"
    },
    {
      "inputs": [],
      "name": "owner",
      "outputs": [
        {
          "internalType": "address",
          "name": "",
          "type": "address"
        }
      ],
      "stateMutability": "view",
      "type": "function"
    },
    {
      "inputs": [],
      "name": "products",
      "outputs": [
        {
          "internalType": "contract Products",
          "name": "",
          "type": "address"
        }
      ],
      "stateMutability": "view",
      "type": "function"
    },
    {
      "inputs": [
        {
          "internalType": "uint256",
          "name": "",
          "type": "uint256"
        }
      ],
      "name": "sellersList",
      "outputs": [
        {
          "internalType": "address",
          "name": "",
          "type": "address"
        }
      ],
      "stateMutability": "view",
      "type": "function"
    },
    {
      "inputs": [
        {
          "internalType": "address",
          "name": "manufacturer",
          "type": "address"
        },
        {
          "internalType": "uint256",
          "name": "_amount",
          "type": "uint256"
        }
      ],
      "name": "transferBalance",
      "outputs": [],
      "stateMutability": "payable",
      "type": "function"
    }
  ],
  "bytecode": "0x60806040523480156200001157600080fd5b5060405162000d0538038062000d058339818101604052810190620000379190620000ef565b81600160006101000a81548173ffffffffffffffffffffffffffffffffffffffff021916908373ffffffffffffffffffffffffffffffffffffffff16021790555080600260006101000a81548173ffffffffffffffffffffffffffffffffffffffff021916908373ffffffffffffffffffffffffffffffffffffffff1602179055505050620001c0565b600081519050620000d2816200018c565b92915050565b600081519050620000e981620001a6565b92915050565b600080604083850312156200010357600080fd5b60006200011385828601620000c1565b92505060206200012685828601620000d8565b9150509250929050565b60006200013d826200016c565b9050919050565b6000620001518262000130565b9050919050565b6000620001658262000130565b9050919050565b600073ffffffffffffffffffffffffffffffffffffffff82169050919050565b620001978162000144565b8114620001a357600080fd5b50565b620001b18162000158565b8114620001bd57600080fd5b50565b610b3580620001d06000396000f3fe6080604052600436106100705760003560e01c8063b62a9e551161004e578063b62a9e55146100e7578063c71e261f14610124578063c7d6a1371461014f578063fbf47a9a1461018c57610070565b806356a6d9ef146100755780637bb98a68146100915780638da5cb5b146100bc575b600080fd5b61008f600480360381019061008a919061071a565b6101c9565b005b34801561009d57600080fd5b506100a66105cb565b6040516100b391906108c9565b60405180910390f35b3480156100c857600080fd5b506100d16105f1565b6040516100de9190610833565b60405180910390f35b3480156100f357600080fd5b5061010e600480360381019061010991906106f1565b610615565b60405161011b919061091f565b60405180910390f35b34801561013057600080fd5b5061013961062d565b60405161014691906108e4565b60405180910390f35b34801561015b57600080fd5b506101766004803603810190610171919061077f565b610653565b6040516101839190610833565b60405180910390f35b34801561019857600080fd5b506101b360048036038101906101ae91906106f1565b610692565b6040516101c091906108ae565b60405180910390f35b6000811161020c576040517f08c379a0000000000000000000000000000000000000000000000000000000008152600401610203906108ff565b60405180910390fd5b600160009054906101000a900473ffffffffffffffffffffffffffffffffffffffff1673ffffffffffffffffffffffffffffffffffffffff166323b872dd333060008561025991906109a1565b6040518463ffffffff1660e01b81526004016102779392919061084e565b602060405180830381600087803b15801561029157600080fd5b505af11580156102a5573d6000803e3d6000fd5b505050506040513d601f19601f820116820180604052508101906102c99190610756565b5080600460003373ffffffffffffffffffffffffffffffffffffffff1673ffffffffffffffffffffffffffffffffffffffff16815260200190815260200160002054610315919061094b565b600460003373ffffffffffffffffffffffffffffffffffffffff1673ffffffffffffffffffffffffffffffffffffffff16815260200190815260200160002081905550600160009054906101000a900473ffffffffffffffffffffffffffffffffffffffff1673ffffffffffffffffffffffffffffffffffffffff1663095ea7b383836040518363ffffffff1660e01b81526004016103b5929190610885565b602060405180830381600087803b1580156103cf57600080fd5b505af11580156103e3573d6000803e3d6000fd5b505050506040513d601f19601f820116820180604052508101906104079190610756565b50600160009054906101000a900473ffffffffffffffffffffffffffffffffffffffff1673ffffffffffffffffffffffffffffffffffffffff166323b872dd3384846040518463ffffffff1660e01b81526004016104679392919061084e565b602060405180830381600087803b15801561048157600080fd5b505af1158015610495573d6000803e3d6000fd5b505050506040513d601f19601f820116820180604052508101906104b99190610756565b50600560003373ffffffffffffffffffffffffffffffffffffffff1673ffffffffffffffffffffffffffffffffffffffff16815260200190815260200160002060009054906101000a900460ff166105c7576003339080600181540180825580915050600190039060005260206000200160009091909190916101000a81548173ffffffffffffffffffffffffffffffffffffffff021916908373ffffffffffffffffffffffffffffffffffffffff1602179055506001600560003373ffffffffffffffffffffffffffffffffffffffff1673ffffffffffffffffffffffffffffffffffffffff16815260200190815260200160002060006101000a81548160ff0219169083151502179055505b5050565b600160009054906101000a900473ffffffffffffffffffffffffffffffffffffffff1681565b60008054906101000a900473ffffffffffffffffffffffffffffffffffffffff1681565b60046020528060005260406000206000915090505481565b600260009054906101000a900473ffffffffffffffffffffffffffffffffffffffff1681565b6003818154811061066357600080fd5b906000526020600020016000915054906101000a900473ffffffffffffffffffffffffffffffffffffffff1681565b60056020528060005260406000206000915054906101000a900460ff1681565b6000813590506106c181610aba565b92915050565b6000815190506106d681610ad1565b92915050565b6000813590506106eb81610ae8565b92915050565b60006020828403121561070357600080fd5b6000610711848285016106b2565b91505092915050565b6000806040838503121561072d57600080fd5b600061073b858286016106b2565b925050602061074c858286016106dc565b9150509250929050565b60006020828403121561076857600080fd5b6000610776848285016106c7565b91505092915050565b60006020828403121561079157600080fd5b600061079f848285016106dc565b91505092915050565b6107b1816109fb565b82525050565b6107c081610a0d565b82525050565b6107cf81610a43565b82525050565b6107de81610a67565b82525050565b60006107f160128361093a565b91507f616d6f756e742063616e6e6f74206265203000000000000000000000000000006000830152602082019050919050565b61082d81610a39565b82525050565b600060208201905061084860008301846107a8565b92915050565b600060608201905061086360008301866107a8565b61087060208301856107a8565b61087d6040830184610824565b949350505050565b600060408201905061089a60008301856107a8565b6108a76020830184610824565b9392505050565b60006020820190506108c360008301846107b7565b92915050565b60006020820190506108de60008301846107c6565b92915050565b60006020820190506108f960008301846107d5565b92915050565b60006020820190508181036000830152610918816107e4565b9050919050565b60006020820190506109346000830184610824565b92915050565b600082825260208201905092915050565b600061095682610a39565b915061096183610a39565b9250827fffffffffffffffffffffffffffffffffffffffffffffffffffffffffffffffff0382111561099657610995610a8b565b5b828201905092915050565b60006109ac82610a39565b91506109b783610a39565b9250817fffffffffffffffffffffffffffffffffffffffffffffffffffffffffffffffff04831182151516156109f0576109ef610a8b565b5b828202905092915050565b6000610a0682610a19565b9050919050565b60008115159050919050565b600073ffffffffffffffffffffffffffffffffffffffff82169050919050565b6000819050919050565b6000610a4e82610a55565b9050919050565b6000610a6082610a19565b9050919050565b6000610a7282610a79565b9050919050565b6000610a8482610a19565b9050919050565b7f4e487b7100000000000000000000000000000000000000000000000000000000600052601160045260246000fd5b610ac3816109fb565b8114610ace57600080fd5b50565b610ada81610a0d565b8114610ae557600080fd5b50565b610af181610a39565b8114610afc57600080fd5b5056fea2646970667358221220a5e325d61f6e8192ea52ab98bb364352d8d55431e16c65d1502ba76db1ec173964736f6c63430008000033",
  "linkReferences": {},
  "deployedLinkReferences": {}
}